:100000000C9462000C948A000C948A000C948A0070
:100010000C948A000C948A000C948A000C948A0038
:100020000C948A000C948A000C948A000C948A0028
:100030000C948A000C948A000C948A000C948A0018
:100040000C9467030C948A000C94D7030C94B103AE
:100050000C948A000C948A000C948A000C948A00F8
:100060000C948A000C948A000000000023002600F3
:10007000290000000000240027002A0000000000E2
:10008000250028002B0004040404040404040202D4
:100090000202020203030303030301020408102007
:1000A0004080010204081020010204081020000012
:1000B0000008000201000003040700000000000027
:1000C00000004E0411241FBECFEFD8E0DEBFCDBF2D
:1000D00011E0A0E0B1E0E0EDFFE002C005900D927C
:1000E000A037B107D9F722E0A0E7B1E001C01D9227
:1000F000A632B207E1F710E0C2E6D0E004C02197D3
:10010000FE010E94AF06C136D107C9F70E94BF04A5
:100110000C94E6070C940000FC018081823069F0A9
:1001200018F4813031F00895833059F0843061F053
:1001300008958AEA8093B30008958AEA8093B40010
:1001400008958AEA87BD08958AEA88BD089590E0F7
:10015000FC01E255FF4F2491FC01E656FF4F34911C
:10016000FC01EA57FF4FE491EE23C9F0222339F056
:10017000233001F1A8F4213019F1223029F1F0E007
:10018000EE0FFF1FE458FF4FA591B4918FB7F8947D
:10019000EC91611126C030953E233C938FBF0895AA
:1001A0002730A9F02830C9F0243049F78091800029
:1001B0008F7D03C0809180008F7780938000DFCF98
:1001C00084B58F7784BDDBCF84B58F7DFBCF8091E5
:1001D000B0008F778093B000D2CF8091B0008F7D38
:1001E000F9CF3E2BDACFCF93DF9360E08CE00E9413
:1001F000A70060E088E00E94A700C7E0D0E060E0D0
:1002000084E00E94A7008091200290E00C2E02C0A2
:10021000959587950A94E2F761E080FF60E088E0B9
:100220000E94A70061E084E00E94A700219738F7B0
:1002300061E08CE0DF91CF910C94A700CF93DF9326
:1002400090E0FC01E656FF4F24918A579F4FFC0136
:1002500084918823D1F090E0880F991FFC01EE581B
:10026000FF4FA591B491FC01E458FF4FC591D49183
:1002700061110EC09FB7F8948C91E22FE0958E2308
:100280008C932881E223E8839FBFDF91CF9108956B
:100290008FB7F894EC91E22BEC938FBFF6CF61E02F
:1002A0008CE00E941E0161E087E00E941E0161E077
:1002B00088E00E941E0161E084E00E941E0110920D
:1002C00020020E94F30060E087E00C94A700AF9248
:1002D000BF92CF92DF92EF92FF920F931F93CF9333
:1002E000DF936C017B018B01040F151FEB015E0195
:1002F000AE18BF08C017D10759F06991D601ED912A
:10030000FC910190F081E02DC6010995892B79F7C8
:10031000C501DF91CF911F910F91FF90EF90DF907A
:10032000CF90BF90AF900895FC01538D448D252F41
:1003300030E0842F90E0821B930B541710F0CF967F
:10034000089501970895FC01918D828D981761F0B1
:10035000A28DAE0FBF2FB11D5D968C91928D9F5FC8
:100360009F73928F90E008958FEF9FEF0895FC01A7
:10037000918D828D981731F0828DE80FF11D858D5A
:1003800090E008958FEF9FEF0895FC01918D228DED
:10039000892F90E0805C9F4F821B91098F73992772
:1003A000089583E891E00E94C50121E0892B09F4BA
:1003B00020E0822F089580E090E0892B29F00E94B0
:1003C000D10181110C9400000895FC01A48DA80FA7
:1003D000B92FB11DA35ABF4F2C91848D90E0019687
:1003E0008F739927848FA689B7892C93A089B189A7
:1003F0008C91837080648C93938D848D981306C048
:100400000288F389E02D80818F7D80830895EF92AB
:10041000FF920F931F93CF93DF93EC0181E0888FBE
:100420009B8D8C8D98131AC0E889F989808185FF8E
:1004300015C09FB7F894EE89FF896083E889F98930
:1004400080818370806480839FBF81E090E0DF9132
:10045000CF911F910F91FF90EF900895F62E0B8D85
:1004600010E00F5F1F4F0F731127E02E8C8D8E1140
:100470000CC00FB607FCFACFE889F989808185FFA7
:10048000F5CFCE010E94E501F1CFEB8DEC0FFD2FF2
:10049000F11DE35AFF4FF0829FB7F8940B8FEA8962
:1004A000FB8980818062CFCFCF93DF93EC01888D71
:1004B0008823B9F0AA89BB89E889F9898C9185FDDF
:1004C00003C0808186FD0DC00FB607FCF7CF8C916D
:1004D00085FFF2CF808185FFEDCFCE010E94E5013F
:1004E000E9CFDF91CF910895FC018081823069F0DE
:1004F00028F423E092E0813051F00895833011F127
:1005000026E090E0843019F0089524E091E0623014
:10051000E1F0643079F1613009F03FC041E050E032
:10052000BA0101C0660F9A95EAF780912002862BE6
:1005300001C0440F2A95EAF74095482340932002D2
:100540000C94F30027E095E0E2CF41E050E0BA01DF
:1005500002C0660F771F9A95E2F7CB0180959091C4
:100560002002892301C0440F2A95EAF7842B809347
:100570002002E6CF41E050E0FA0102C0EE0FFF1F7B
:100580009A95E2F7CF0101C0440F2A95EAF7842B30
:100590008095909120028923EACF0895FC01019073
:1005A0000020E9F73197AF01481B590BBC0183E8E4
:1005B00091E00C9467018F929F92AF92BF920F933C
:1005C0001F93CF93DF93CDB7DEB7A1970FB6F89403
:1005D000DEBF0FBECDBF19A2423008F44AE08E0143
:1005E0000F5D1F4F842E912CB12CA12CA5019401DD
:1005F0000E948D06E62FB901CA01EA30F4F4E05DED
:10060000D801EE938D01232B242B252B79F790E035
:1006100080E0109719F0CD010E94CE02A1960FB68E
:10062000F894DEBF0FBECDBFDF91CF911F910F9128
:10063000BF90AF909F908F900895E95CE1CFCF93EA
:10064000DF930E94CE02EC0183E191E00E94CE0292
:100650008C0F9D1FDF91CF91089584E292E00E945C
:100660008C0082E292E00E948C00809182018823BB
:1006700079F086E191E00E94CE024AE06AEA70E0F9
:1006800080E090E00E94DB0283E191E00C94CE02D6
:100690000895CF93909100019817B9F0C82F8091D9
:1006A0008201882369F084E291E00E94CE026C2FDF
:1006B00083E891E00E94070283E191E00E94CE026C
:1006C000C093000181E080937801CF9108951F923B
:1006D0000F920FB60F9211242F933F938F939F93F6
:1006E000AF93BF9380917E0190917F01A091800193
:1006F000B091810130917D0123E0230F2D3758F512
:100700000196A11DB11D20937D0180937E019093E0
:100710007F01A0938001B093810180917901909134
:100720007A01A0917B01B0917C010196A11DB11DC0
:100730008093790190937A01A0937B01B0937C011F
:10074000BF91AF919F918F913F912F910F900FBECD
:100750000F901F90189526E8230F0296A11DB11D3A
:10076000D2CF1F920F920FB60F9211242F933F9367
:100770004F935F936F937F938F939F93AF93BF93A9
:10078000EF93FF9383E891E00E94E501FF91EF91E1
:10079000BF91AF919F918F917F916F915F914F9199
:1007A0003F912F910F900FBE0F901F9018951F92A1
:1007B0000F920FB60F9211242F938F939F93EF9365
:1007C000FF93E0919301F09194018081E091990170
:1007D000F0919A0182FD1BC0908180919C018F5FF6
:1007E0008F7320919D01821741F0E0919C01F0E010
:1007F000ED57FE4F958F80939C01FF91EF919F9154
:100800008F912F910F900FBE0F901F9018958081A0
:10081000F4CFCF92DF92EF92FF920F931F93E82FC6
:10082000F92F05C0015011092109310961F19081A9
:1008300096239417B9F305C0015011092109310914
:1008400011F1908196239413F7CFC12CD12CE12C78
:10085000F12C0AC08FEFC81AD80AE80AF80A0C155A
:100860001D052E053F0579F080818623841791F3BD
:100870006C2D7D2D8E2D9F2D1F910F91FF90EF9050
:10088000DF90CF90089560E070E080E090E01F91ED
:100890000F91FF90EF90DF90CF900895EF92FF922D
:1008A0000F931F93CF93E3E8F1E01382128288EE57
:1008B00093E0A0E0B0E084839583A683B78385E0CE
:1008C00091E09183808385EC90E09587848784EC28
:1008D00090E09787868780EC90E0918B808B81EC0D
:1008E00090E0938B828B82EC90E0958B848B86ECEE
:1008F00090E0978B868B118E128E138E148E109231
:100900002102E4E2F2E081E08083C2E0C1830E9440
:100910004F0180912002837F809320020E94F30088
:1009200000EB10E0F80180818368808381EBE82E82
:10093000F12CF701C0831092B30061E08BE00E94BC
:100940001E01E2E2F2E0C083C1830E944F01809168
:1009500020028D7E809320020E94F300F8018081A6
:1009600083628083F701C0831092B40061E083E06A
:10097000CF911F910F91FF90EF900C941E017894EE
:1009800084B5826084BD84B5816084BD85B5826094
:1009900085BD85B5816085BD80916E008160809345
:1009A0006E001092810080918100826080938100AE
:1009B00080918100816080938100809180008160BE
:1009C000809380008091B10084608093B100809119
:1009D000B00081608093B00080917A008460809341
:1009E0007A0080917A00826080937A0080917A0008
:1009F000816080937A0080917A00806880937A0089
:100A00001092C100E0919301F091940182E0808303
:100A1000E0918F01F09190011082E0919101F091AD
:100A200092018FEC808310929B01E0919701F091ED
:100A3000980186E08083E0919501F0919601808194
:100A400080618083E0919501F091960180818860BA
:100A50008083E0919501F091960180818068808388
:100A6000E0919501F091960180818F7D808383E1F3
:100A700091E00E94CE0261E08AE00E941E0160E0E7
:100A800089E00E941E0181E08093820186E40E9439
:100A9000490393E0E92EF12C23E2C22ED12C33EA54
:100AA000432E30E0532E4FE8642E40E0742EC0E019
:100AB000D0E080910001863409F0C0C080917801B7
:100AC0008823B1F00E942D0361E084E292E00E944D
:100AD000740261E082E292E00E94740280918201DD
:100AE000882321F081E391E00E941F031092780196
:100AF0002FB7F89480917E0190917F01A0918001A1
:100B0000B09181012FBF40917001509171016091AE
:100B1000720170917301841B950BA60BB70B0397A1
:100B2000A105B1050CF47FC060E08AE00E94A70037
:100B3000C7010197F1F761E08AE00E94A700C601B2
:100B40000197F1F760E08AE00E94A700F20164914A
:100B5000F3018491E82FF0E0EE0FFF1FE859FF4FFB
:100B60008591949100E412E42FE030E0462F0E943A
:100B70000904611571058105910529F06F5F7F4FAB
:100B80008F4F9F4F9F700E94ED0628E23EE74CE09A
:100B90005DE30E94510720E030E040E05FE30E9407
:100BA00051070E94B5064B018B0180918201882379
:100BB00001F18CE391E00E94CE02092C000CAA08FE
:100BC000BB084AE0C501B401B7FE0DC06DE283E881
:100BD00091E00E94070266277727CB0168197909FF
:100BE0008A099B094AE00E94DB0287E491E00E94A7
:100BF0001F0382E5043011050CF086E40E944903CE
:100C00002FB7F89480917E0190917F01A09180018F
:100C1000B09181012FBF8093700190937101A093D7
:100C20007201B0937301209709F443CF0E94D10160
:100C3000882309F43ECF0E9400003BCF8335C9F4DE
:100C400080917801882379F364E084E292E00E9445
:100C5000740264E082E292E00E9474028091820158
:100C6000882321F08BE491E00E941F031092780109
:100C7000DACF8235C1F60E942D0362E084E292E071
:100C80000E94740261E082E292E00E94740280910C
:100C90008201882321F080E591E00E941F0380916A
:100CA00078018823A9F0109278012FB7F8948091E9
:100CB0007E0190917F01A0918001B09181012FBFB1
:100CC0008093740190937501A0937601B09377019E
:100CD0002FB7F89480917E0190917F01A0918001BF
:100CE000B09181012FBF40917401509175016091C5
:100CF000760170917701841B950BA60BB70B803D95
:100D00009740A105B1050CF48ECF81E691E00E94D9
:100D10001F0386E40E94490386CFA1E21A2EAA1B74
:100D2000BB1BFD010DC0AA1FBB1FEE1FFF1FA2179B
:100D3000B307E407F50720F0A21BB30BE40BF50B98
:100D4000661F771F881F991F1A9469F76095709521
:100D5000809590959B01AC01BD01CF010895EE0FE8
:100D6000FF1F0590F491E02D09940E94BC06689441
:100D7000B1110C944B0708950E94300788F09F57DB
:100D800098F0B92F9927B751B0F0E1F0660F771FAF
:100D9000881F991F1AF0BA95C9F714C0B13091F0A5
:100DA0000E944A07B1E008950C944A07672F782FF4
:100DB0008827B85F39F0B93FCCF38695779567956A
:100DC000B395D9F73EF490958095709561957F4FD6
:100DD0008F4F9F4F0895E89409C097FB3EF490957C
:100DE0008095709561957F4F8F4F9F4F9923A9F004
:100DF000F92F96E9BB279395F69587957795679593
:100E0000B795F111F8CFFAF4BB0F11F460FF1BC0D6
:100E10006F5F7F4F8F4F9F4F16C0882311F096E969
:100E200011C0772321F09EE8872F762F05C0662317
:100E300071F096E8862F70E060E02AF09A95660FD0
:100E4000771F881FDAF7880F9695879597F9089589
:100E500057FD9058440F551F59F05F3F71F047956B
:100E6000880F97FB991F61F09F3F79F08795089550
:100E7000121613061406551FF2CF4695F1DF08C06F
:100E8000161617061806991FF1CF8695710561058C
:100E900008940895E894BB2766277727CB0197F934
:100EA00008950E9464070C94D5070E94C70738F084
:100EB0000E94CE0720F0952311F00C94BE070C94ED
:100EC000C40711240C944B070E94280770F3959FC8
:100ED000C1F3950F50E0551F629FF001729FBB2731
:100EE000F00DB11D639FAA27F00DB11DAA1F649FCD
:100EF0006627B00DA11D661F829F2227B00DA11D80
:100F0000621F739FB00DA11D621F839FA00D611D05
:100F1000221F749F3327A00D611D231F849F600D26
:100F2000211D822F762F6A2F11249F5750409AF04F
:100F3000F1F088234AF0EE0FFF1FBB1F661F771FDB
:100F4000881F91505040A9F79E3F510580F00C94A6
:100F5000BE070C944B075F3FE4F3983ED4F38695AD
:100F600077956795B795F795E7959F5FC1F7FE2B46
:100F7000880F911D9695879597F9089597F99F6722
:100F800080E870E060E008959FEF80EC0895002411
:100F90000A941616170618060906089500240A94DE
:100FA00012161306140605060895092E0394000C64
:100FB00011F4882352F0BB0F40F4BF2B11F460FFF3
:100FC00004C06F5F7F4F8F4F9F4F0895F894FFCFFE
:100FD00053000000000702670194015402C501A3F9
:100FE00001B7010D0A004D6F746F72207370656553
:100FF000643A2000536574207374617475733A20E9
:1010000000476F20666F7277617264004469737481
:10101000616E63653A200020636D0053746F700049
:101020005374617274207475726E205269676874AB
:1010300000456E64207475726E2052696768740092
:00000001FF
